{
  "address": "0xe7f1725E7734CE288F8367e1Bb143E90bb3F0512",
  "abi": [
    {
      "inputs": [],
      "stateMutability": "payable",
      "type": "constructor"
    },
    {
      "inputs": [],
      "name": "notOwner",
      "type": "error"
    },
    {
      "anonymous": false,
      "inputs": [
        {
          "indexed": true,
          "internalType": "address",
          "name": "_owner",
          "type": "address"
        },
        {
          "indexed": false,
          "internalType": "uint256",
          "name": "_funds",
          "type": "uint256"
        }
      ],
      "name": "contractCreated",
      "type": "event"
    },
    {
      "anonymous": false,
      "inputs": [
        {
          "indexed": true,
          "internalType": "address",
          "name": "_from",
          "type": "address"
        },
        {
          "indexed": false,
          "internalType": "uint256",
          "name": "_amount",
          "type": "uint256"
        }
      ],
      "name": "fundsRecieved",
      "type": "event"
    },
    {
      "anonymous": false,
      "inputs": [
        {
          "indexed": true,
          "internalType": "address",
          "name": "_from",
          "type": "address"
        },
        {
          "indexed": false,
          "internalType": "uint256",
          "name": "_amount",
          "type": "uint256"
        }
      ],
      "name": "fundsReleased",
      "type": "event"
    },
    {
      "anonymous": false,
      "inputs": [
        {
          "indexed": true,
          "internalType": "address",
          "name": "_owner",
          "type": "address"
        },
        {
          "indexed": false,
          "internalType": "string",
          "name": "message",
          "type": "string"
        }
      ],
      "name": "ownerChanged",
      "type": "event"
    },
    {
      "inputs": [
        {
          "internalType": "address",
          "name": "_newOwner",
          "type": "address"
        }
      ],
      "name": "changeOwner",
      "outputs": [],
      "stateMutability": "nonpayable",
      "type": "function"
    },
    {
      "inputs": [],
      "name": "owner",
      "outputs": [
        {
          "internalType": "address",
          "name": "",
          "type": "address"
        }
      ],
      "stateMutability": "view",
      "type": "function"
    },
    {
      "inputs": [],
      "name": "recieveFunds",
      "outputs": [],
      "stateMutability": "payable",
      "type": "function"
    },
    {
      "inputs": [],
      "name": "releaseFunds",
      "outputs": [],
      "stateMutability": "payable",
      "type": "function"
    },
    {
      "inputs": [],
      "name": "totalFunds",
      "outputs": [
        {
          "internalType": "uint256",
          "name": "",
          "type": "uint256"
        }
      ],
      "stateMutability": "view",
      "type": "function"
    }
  ],
  "transactionHash": "0x68770456d8f0dd76b53c411b9a46a16b1c6a8f8281dba2e70575a6e79b4f3a6f",
  "args": [],
  "numDeployments": 1,
  "solcInputHash": "c3a9706e966bcff13eebeeff1da2f8c3",
  "bytecode": "0x608060405233600160006101000a81548173ffffffffffffffffffffffffffffffffffffffff021916908373ffffffffffffffffffffffffffffffffffffffff16021790555034600080828254610056919061010b565b92505081905550600160009054906101000a900473ffffffffffffffffffffffffffffffffffffffff1673ffffffffffffffffffffffffffffffffffffffff167f2297e5058197de026d9e512235e452567ef4d58cf3f08facc4da774b84579e5a346040516100c5919061014e565b60405180910390a2610169565b6000819050919050565b7f4e487b7100000000000000000000000000000000000000000000000000000000600052601160045260246000fd5b6000610116826100d2565b9150610121836100d2565b9250828201905080821115610139576101386100dc565b5b92915050565b610148816100d2565b82525050565b6000602082019050610163600083018461013f565b92915050565b610659806101786000396000f3fe60806040526004361061004a5760003560e01c806369d895751461004f5780638da5cb5b14610059578063968ed60014610084578063a6f9dae1146100af578063baba4811146100d8575b600080fd5b6100576100e2565b005b34801561006557600080fd5b5061006e610273565b60405161007b9190610447565b60405180910390f35b34801561009057600080fd5b50610099610299565b6040516100a6919061047b565b60405180910390f35b3480156100bb57600080fd5b506100d660048036038101906100d191906104c7565b61029f565b005b6100e06103b6565b005b600160009054906101000a900473ffffffffffffffffffffffffffffffffffffffff1673ffffffffffffffffffffffffffffffffffffffff163373ffffffffffffffffffffffffffffffffffffffff1614610169576040517f251c9d6300000000000000000000000000000000000000000000000000000000815260040160405180910390fd5b60008081905550600047905060003373ffffffffffffffffffffffffffffffffffffffff164760405161019b90610525565b60006040518083038185875af1925050503d80600081146101d8576040519150601f19603f3d011682016040523d82523d6000602084013e6101dd565b606091505b5050905080610221576040517f08c379a000000000000000000000000000000000000000000000000000000000815260040161021890610597565b60405180910390fd5b3373ffffffffffffffffffffffffffffffffffffffff167fb98ff9e53235b43b898fc4b6f01e3a19e4cb7522765a8eab64d8d06978287a8f83604051610267919061047b565b60405180910390a25050565b600160009054906101000a900473ffffffffffffffffffffffffffffffffffffffff1681565b60005481565b600160009054906101000a900473ffffffffffffffffffffffffffffffffffffffff1673ffffffffffffffffffffffffffffffffffffffff163373ffffffffffffffffffffffffffffffffffffffff1614610326576040517f251c9d6300000000000000000000000000000000000000000000000000000000815260040160405180910390fd5b80600160006101000a81548173ffffffffffffffffffffffffffffffffffffffff021916908373ffffffffffffffffffffffffffffffffffffffff1602179055508073ffffffffffffffffffffffffffffffffffffffff167f632957729373a0690a43d9fe2e1ea9262fe3c34b3fa4bdd3a1e686cbe3a1beb06040516103ab90610603565b60405180910390a250565b3373ffffffffffffffffffffffffffffffffffffffff167f306ce73b6b124b46ee939ebb8a2e1a7d1656ae4261d97cf38c05c596631c15d1346040516103fc919061047b565b60405180910390a2565b600073ffffffffffffffffffffffffffffffffffffffff82169050919050565b600061043182610406565b9050919050565b61044181610426565b82525050565b600060208201905061045c6000830184610438565b92915050565b6000819050919050565b61047581610462565b82525050565b6000602082019050610490600083018461046c565b92915050565b600080fd5b6104a481610426565b81146104af57600080fd5b50565b6000813590506104c18161049b565b92915050565b6000602082840312156104dd576104dc610496565b5b60006104eb848285016104b2565b91505092915050565b600081905092915050565b50565b600061050f6000836104f4565b915061051a826104ff565b600082019050919050565b600061053082610502565b9150819050919050565b600082825260208201905092915050565b7f7472616e73666572206661696c65640000000000000000000000000000000000600082015250565b6000610581600f8361053a565b915061058c8261054b565b602082019050919050565b600060208201905081810360008301526105b081610574565b9050919050565b7f4f776e6572204368616e67656400000000000000000000000000000000000000600082015250565b60006105ed600d8361053a565b91506105f8826105b7565b602082019050919050565b6000602082019050818103600083015261061c816105e0565b905091905056fea2646970667358221220787cebc9311648b6b6945336fd04e5826022878009294e11870884652b0a0b0b64736f6c63430008110033",
  "devdoc": {
    "kind": "dev",
    "methods": {},
    "version": 1
  },
  "userdoc": {
    "kind": "user",
    "methods": {},
    "version": 1
  },
  "storageLayout": {
    "storage": [
      {
        "astId": 3,
        "contract": "contracts/EventsChallenge.sol:EventsChallenge",
        "label": "totalFunds",
        "offset": 0,
        "slot": "0",
        "type": "t_uint256"
      },
      {
        "astId": 5,
        "contract": "contracts/EventsChallenge.sol:EventsChallenge",
        "label": "owner",
        "offset": 0,
        "slot": "1",
        "type": "t_address"
      }
    ],
    "types": {
      "t_address": {
        "encoding": "inplace",
        "label": "address",
        "numberOfBytes": "20"
      },
      "t_uint256": {
        "encoding": "inplace",
        "label": "uint256",
        "numberOfBytes": "32"
      }
    }
  }
}