{
  "address": "0x5FbDB2315678afecb367f032d93F642f64180aa3",
  "abi": [
    {
      "inputs": [],
      "name": "addFunds",
      "outputs": [],
      "stateMutability": "payable",
      "type": "function"
    },
    {
      "inputs": [
        {
          "internalType": "uint256",
          "name": "x",
          "type": "uint256"
        },
        {
          "internalType": "uint256",
          "name": "y",
          "type": "uint256"
        }
      ],
      "name": "calculateSum",
      "outputs": [
        {
          "internalType": "uint256",
          "name": "",
          "type": "uint256"
        }
      ],
      "stateMutability": "pure",
      "type": "function"
    },
    {
      "inputs": [],
      "name": "viewFunds",
      "outputs": [
        {
          "internalType": "uint256",
          "name": "",
          "type": "uint256"
        }
      ],
      "stateMutability": "view",
      "type": "function"
    }
  ],
  "transactionHash": "0xa06230aa04167c8940b39bc92a217d38e3b6a09c7f3adc6b380453eb3b35d023",
  "args": [],
  "numDeployments": 1,
  "solcInputHash": "c3a9706e966bcff13eebeeff1da2f8c3",
  "bytecode": "0x608060405234801561001057600080fd5b50610222806100206000396000f3fe6080604052600436106100345760003560e01c8063379b249514610039578063a26759cb14610064578063ea4097bd1461006e575b600080fd5b34801561004557600080fd5b5061004e6100ab565b60405161005b91906100fd565b60405180910390f35b61006c6100b4565b005b34801561007a57600080fd5b5061009560048036038101906100909190610149565b6100ce565b6040516100a291906100fd565b60405180910390f35b60008054905090565b346000808282546100c591906101b8565b92505081905550565b600081836100dc91906101b8565b905092915050565b6000819050919050565b6100f7816100e4565b82525050565b600060208201905061011260008301846100ee565b92915050565b600080fd5b610126816100e4565b811461013157600080fd5b50565b6000813590506101438161011d565b92915050565b600080604083850312156101605761015f610118565b5b600061016e85828601610134565b925050602061017f85828601610134565b9150509250929050565b7f4e487b7100000000000000000000000000000000000000000000000000000000600052601160045260246000fd5b60006101c3826100e4565b91506101ce836100e4565b92508282019050808211156101e6576101e5610189565b5b9291505056fea2646970667358221220909f91514ee0b32e7c994c4aa798ddcadc8e0efd082139da5d925f4105f00c4664736f6c63430008110033",
  "devdoc": {
    "kind": "dev",
    "methods": {},
    "version": 1
  },
  "userdoc": {
    "kind": "user",
    "methods": {},
    "version": 1
  },
  "storageLayout": {
    "storage": [
      {
        "astId": 144,
        "contract": "contracts/FunctionChallenge.sol:FunctionChallenge",
        "label": "totalFunds",
        "offset": 0,
        "slot": "0",
        "type": "t_uint256"
      }
    ],
    "types": {
      "t_uint256": {
        "encoding": "inplace",
        "label": "uint256",
        "numberOfBytes": "32"
      }
    }
  }
}