{
  "address": "0x9fE46736679d2D9a65F0992F2272dE9f3c7fa6e0",
  "abi": [
    {
      "inputs": [],
      "name": "InsufficientFunds",
      "type": "error"
    },
    {
      "anonymous": false,
      "inputs": [
        {
          "indexed": false,
          "internalType": "address",
          "name": "_sender",
          "type": "address"
        },
        {
          "indexed": false,
          "internalType": "uint256",
          "name": "_amount",
          "type": "uint256"
        },
        {
          "indexed": false,
          "internalType": "uint256",
          "name": "_gasleft",
          "type": "uint256"
        }
      ],
      "name": "fundsAdded",
      "type": "event"
    },
    {
      "inputs": [],
      "name": "addFunds",
      "outputs": [],
      "stateMutability": "payable",
      "type": "function"
    },
    {
      "inputs": [],
      "name": "lastFundValue",
      "outputs": [
        {
          "internalType": "uint256",
          "name": "",
          "type": "uint256"
        }
      ],
      "stateMutability": "view",
      "type": "function"
    },
    {
      "inputs": [],
      "name": "lastFundedBy",
      "outputs": [
        {
          "internalType": "address",
          "name": "",
          "type": "address"
        }
      ],
      "stateMutability": "view",
      "type": "function"
    },
    {
      "inputs": [],
      "name": "totalFunds",
      "outputs": [
        {
          "internalType": "uint256",
          "name": "",
          "type": "uint256"
        }
      ],
      "stateMutability": "view",
      "type": "function"
    }
  ],
  "transactionHash": "0xca54981812118f112af022fea6b9095a617307a94448f63eccd04250c8064031",
  "args": [],
  "numDeployments": 1,
  "solcInputHash": "c3a9706e966bcff13eebeeff1da2f8c3",
  "bytecode": "0x608060405234801561001057600080fd5b50610338806100206000396000f3fe60806040526004361061003f5760003560e01c80637bf1365514610044578063968ed6001461006f57806397c675c21461009a578063a26759cb146100c5575b600080fd5b34801561005057600080fd5b506100596100cf565b60405161006691906101f1565b60405180910390f35b34801561007b57600080fd5b506100846100d5565b60405161009191906101f1565b60405180910390f35b3480156100a657600080fd5b506100af6100db565b6040516100bc919061024d565b60405180910390f35b6100cd6100ff565b005b60015481565b60025481565b60008054906101000a900473ffffffffffffffffffffffffffffffffffffffff1681565b60003403610139576040517f356680b700000000000000000000000000000000000000000000000000000000815260040160405180910390fd5b346002600082825461014b9190610297565b9250508190555034600181905550336000806101000a81548173ffffffffffffffffffffffffffffffffffffffff021916908373ffffffffffffffffffffffffffffffffffffffff1602179055507f550176e0e2e6c940fd587f7c948219bc6fd7e129b15d803f2fc6868f760026d4336001545a6040516101ce939291906102cb565b60405180910390a1565b6000819050919050565b6101eb816101d8565b82525050565b600060208201905061020660008301846101e2565b92915050565b600073ffffffffffffffffffffffffffffffffffffffff82169050919050565b60006102378261020c565b9050919050565b6102478161022c565b82525050565b6000602082019050610262600083018461023e565b92915050565b7f4e487b7100000000000000000000000000000000000000000000000000000000600052601160045260246000fd5b60006102a2826101d8565b91506102ad836101d8565b92508282019050808211156102c5576102c4610268565b5b92915050565b60006060820190506102e0600083018661023e565b6102ed60208301856101e2565b6102fa60408301846101e2565b94935050505056fea264697066735822122056aa93740461ccf9b95c54b9dcf686d3c32a7a38a225f3966dc3d13720da158564736f6c63430008110033",
  "devdoc": {
    "kind": "dev",
    "methods": {},
    "version": 1
  },
  "userdoc": {
    "kind": "user",
    "methods": {},
    "version": 1
  },
  "storageLayout": {
    "storage": [
      {
        "astId": 180,
        "contract": "contracts/GlobalFunctionsChallenge.sol:GlobalFunctionsChallenge",
        "label": "lastFundedBy",
        "offset": 0,
        "slot": "0",
        "type": "t_address"
      },
      {
        "astId": 182,
        "contract": "contracts/GlobalFunctionsChallenge.sol:GlobalFunctionsChallenge",
        "label": "lastFundValue",
        "offset": 0,
        "slot": "1",
        "type": "t_uint256"
      },
      {
        "astId": 184,
        "contract": "contracts/GlobalFunctionsChallenge.sol:GlobalFunctionsChallenge",
        "label": "totalFunds",
        "offset": 0,
        "slot": "2",
        "type": "t_uint256"
      }
    ],
    "types": {
      "t_address": {
        "encoding": "inplace",
        "label": "address",
        "numberOfBytes": "20"
      },
      "t_uint256": {
        "encoding": "inplace",
        "label": "uint256",
        "numberOfBytes": "32"
      }
    }
  }
}