{
  "address": "0xCf7Ed3AccA5a467e9e704C703E8D87F634fB0Fc9",
  "abi": [
    {
      "inputs": [],
      "stateMutability": "nonpayable",
      "type": "constructor"
    },
    {
      "inputs": [],
      "name": "gameLost",
      "type": "error"
    },
    {
      "inputs": [
        {
          "internalType": "uint256",
          "name": "_sum",
          "type": "uint256"
        }
      ],
      "name": "guess",
      "outputs": [
        {
          "internalType": "string",
          "name": "",
          "type": "string"
        }
      ],
      "stateMutability": "view",
      "type": "function"
    },
    {
      "inputs": [],
      "name": "owner",
      "outputs": [
        {
          "internalType": "address",
          "name": "",
          "type": "address"
        }
      ],
      "stateMutability": "view",
      "type": "function"
    },
    {
      "inputs": [],
      "name": "play",
      "outputs": [],
      "stateMutability": "nonpayable",
      "type": "function"
    },
    {
      "inputs": [],
      "name": "reset",
      "outputs": [],
      "stateMutability": "nonpayable",
      "type": "function"
    }
  ],
  "transactionHash": "0xf7ddbb0dc490c577f425721901d45c98f1b520f744a2e23f1a1783e8e4f66f66",
  "args": [],
  "numDeployments": 1,
  "solcInputHash": "c3a9706e966bcff13eebeeff1da2f8c3",
  "bytecode": "0x608060405234801561001057600080fd5b50336000806101000a81548173ffffffffffffffffffffffffffffffffffffffff021916908373ffffffffffffffffffffffffffffffffffffffff1602179055506104d4806100606000396000f3fe608060405234801561001057600080fd5b506004361061004c5760003560e01c80638da5cb5b146100515780639189fec11461006f57806393e84cd91461009f578063d826f88f146100a9575b600080fd5b6100596100b3565b6040516100669190610257565b60405180910390f35b610089600480360381019061008491906102ad565b6100d7565b604051610096919061036a565b60405180910390f35b6100a7610151565b005b6100b161017e565b005b60008054906101000a900473ffffffffffffffffffffffffffffffffffffffff1681565b60608160015414610114576040517f2db9d9c000000000000000000000000000000000000000000000000000000000815260040160405180910390fd5b6040518060400160405280600a81526020017f596f752057696e212121000000000000000000000000000000000000000000008152509050919050565b600a600154106101645761016361038c565b5b60016000815480929190610177906103ea565b9190505550565b60008054906101000a900473ffffffffffffffffffffffffffffffffffffffff1673ffffffffffffffffffffffffffffffffffffffff163373ffffffffffffffffffffffffffffffffffffffff161461020c576040517f08c379a00000000000000000000000000000000000000000000000000000000081526004016102039061047e565b60405180910390fd5b6000600181905550565b600073ffffffffffffffffffffffffffffffffffffffff82169050919050565b600061024182610216565b9050919050565b61025181610236565b82525050565b600060208201905061026c6000830184610248565b92915050565b600080fd5b6000819050919050565b61028a81610277565b811461029557600080fd5b50565b6000813590506102a781610281565b92915050565b6000602082840312156102c3576102c2610272565b5b60006102d184828501610298565b91505092915050565b600081519050919050565b600082825260208201905092915050565b60005b838110156103145780820151818401526020810190506102f9565b60008484015250505050565b6000601f19601f8301169050919050565b600061033c826102da565b61034681856102e5565b93506103568185602086016102f6565b61035f81610320565b840191505092915050565b600060208201905081810360008301526103848184610331565b905092915050565b7f4e487b7100000000000000000000000000000000000000000000000000000000600052600160045260246000fd5b7f4e487b7100000000000000000000000000000000000000000000000000000000600052601160045260246000fd5b60006103f582610277565b91507fffffffffffffffffffffffffffffffffffffffffffffffffffffffffffffffff8203610427576104266103bb565b5b600182019050919050565b7f4e6f74204f776e65720000000000000000000000000000000000000000000000600082015250565b60006104686009836102e5565b915061047382610432565b602082019050919050565b600060208201905081810360008301526104978161045b565b905091905056fea26469706673582212206d1a42769ffd8cf7d82720abd9db6bc4046cab03773114f0806bb35dbf96c5a864736f6c63430008110033",
  "devdoc": {
    "kind": "dev",
    "methods": {},
    "version": 1
  },
  "userdoc": {
    "kind": "user",
    "methods": {},
    "version": 1
  },
  "storageLayout": {
    "storage": [
      {
        "astId": 235,
        "contract": "contracts/Module1Project.sol:Module1Project",
        "label": "owner",
        "offset": 0,
        "slot": "0",
        "type": "t_address"
      },
      {
        "astId": 237,
        "contract": "contracts/Module1Project.sol:Module1Project",
        "label": "sum",
        "offset": 0,
        "slot": "1",
        "type": "t_uint256"
      }
    ],
    "types": {
      "t_address": {
        "encoding": "inplace",
        "label": "address",
        "numberOfBytes": "20"
      },
      "t_uint256": {
        "encoding": "inplace",
        "label": "uint256",
        "numberOfBytes": "32"
      }
    }
  }
}