{
  "address": "0x0165878A594ca255338adfa4d48449f69242Eb8F",
  "abi": [
    {
      "inputs": [],
      "name": "contractAddress",
      "outputs": [
        {
          "internalType": "address",
          "name": "",
          "type": "address"
        }
      ],
      "stateMutability": "view",
      "type": "function"
    },
    {
      "inputs": [],
      "name": "data",
      "outputs": [
        {
          "internalType": "address",
          "name": "addr",
          "type": "address"
        },
        {
          "internalType": "string",
          "name": "FirstName",
          "type": "string"
        },
        {
          "internalType": "string",
          "name": "LastName",
          "type": "string"
        }
      ],
      "stateMutability": "view",
      "type": "function"
    },
    {
      "inputs": [
        {
          "internalType": "address",
          "name": "_addr",
          "type": "address"
        },
        {
          "internalType": "string",
          "name": "_firstName",
          "type": "string"
        },
        {
          "internalType": "string",
          "name": "_lastName",
          "type": "string"
        }
      ],
      "name": "populateData",
      "outputs": [],
      "stateMutability": "nonpayable",
      "type": "function"
    },
    {
      "inputs": [
        {
          "internalType": "address",
          "name": "_contractAddress",
          "type": "address"
        }
      ],
      "name": "setContractAddress",
      "outputs": [],
      "stateMutability": "nonpayable",
      "type": "function"
    }
  ],
  "transactionHash": "0x77d47b122e86398c732621d2c04f00868d84d64597d585e5a2a8efbe321ae85c",
  "args": [],
  "numDeployments": 1,
  "solcInputHash": "c3a9706e966bcff13eebeeff1da2f8c3",
  "bytecode": "0x608060405234801561001057600080fd5b506107ef806100206000396000f3fe608060405234801561001057600080fd5b506004361061004c5760003560e01c8063477bddaa146100515780635b05f89c1461006d57806373d4a13a14610089578063f6b4dfb4146100a9575b600080fd5b61006b6004803603810190610066919061040f565b6100c7565b005b61008760048036038101906100829190610582565b61010b565b005b61009161022f565b6040516100a09392919061069b565b60405180910390f35b6100b1610377565b6040516100be91906106e0565b60405180910390f35b80600360006101000a81548173ffffffffffffffffffffffffffffffffffffffff021916908373ffffffffffffffffffffffffffffffffffffffff16021790555050565b6000600360009054906101000a900473ffffffffffffffffffffffffffffffffffffffff1673ffffffffffffffffffffffffffffffffffffffff1684848460405160240161015b9392919061069b565b6040516020818303038152906040527f5b05f89c000000000000000000000000000000000000000000000000000000007bffffffffffffffffffffffffffffffffffffffffffffffffffffffff19166020820180517bffffffffffffffffffffffffffffffffffffffffffffffffffffffff83818316178352505050506040516101e59190610742565b600060405180830381855af49150503d8060008114610220576040519150601f19603f3d011682016040523d82523d6000602084013e610225565b606091505b5050905050505050565b60008060000160009054906101000a900473ffffffffffffffffffffffffffffffffffffffff169080600101805461026690610788565b80601f016020809104026020016040519081016040528092919081815260200182805461029290610788565b80156102df5780601f106102b4576101008083540402835291602001916102df565b820191906000526020600020905b8154815290600101906020018083116102c257829003601f168201915b5050505050908060020180546102f490610788565b80601f016020809104026020016040519081016040528092919081815260200182805461032090610788565b801561036d5780601f106103425761010080835404028352916020019161036d565b820191906000526020600020905b81548152906001019060200180831161035057829003601f168201915b5050505050905083565b600360009054906101000a900473ffffffffffffffffffffffffffffffffffffffff1681565b6000604051905090565b600080fd5b600080fd5b600073ffffffffffffffffffffffffffffffffffffffff82169050919050565b60006103dc826103b1565b9050919050565b6103ec816103d1565b81146103f757600080fd5b50565b600081359050610409816103e3565b92915050565b600060208284031215610425576104246103a7565b5b6000610433848285016103fa565b91505092915050565b600080fd5b600080fd5b6000601f19601f8301169050919050565b7f4e487b7100000000000000000000000000000000000000000000000000000000600052604160045260246000fd5b61048f82610446565b810181811067ffffffffffffffff821117156104ae576104ad610457565b5b80604052505050565b60006104c161039d565b90506104cd8282610486565b919050565b600067ffffffffffffffff8211156104ed576104ec610457565b5b6104f682610446565b9050602081019050919050565b82818337600083830152505050565b6000610525610520846104d2565b6104b7565b90508281526020810184848401111561054157610540610441565b5b61054c848285610503565b509392505050565b600082601f8301126105695761056861043c565b5b8135610579848260208601610512565b91505092915050565b60008060006060848603121561059b5761059a6103a7565b5b60006105a9868287016103fa565b935050602084013567ffffffffffffffff8111156105ca576105c96103ac565b5b6105d686828701610554565b925050604084013567ffffffffffffffff8111156105f7576105f66103ac565b5b61060386828701610554565b9150509250925092565b610616816103d1565b82525050565b600081519050919050565b600082825260208201905092915050565b60005b8381101561065657808201518184015260208101905061063b565b60008484015250505050565b600061066d8261061c565b6106778185610627565b9350610687818560208601610638565b61069081610446565b840191505092915050565b60006060820190506106b0600083018661060d565b81810360208301526106c28185610662565b905081810360408301526106d68184610662565b9050949350505050565b60006020820190506106f5600083018461060d565b92915050565b600081519050919050565b600081905092915050565b600061071c826106fb565b6107268185610706565b9350610736818560208601610638565b80840191505092915050565b600061074e8284610711565b915081905092915050565b7f4e487b7100000000000000000000000000000000000000000000000000000000600052602260045260246000fd5b600060028204905060018216806107a057607f821691505b6020821081036107b3576107b2610759565b5b5091905056fea264697066735822122055907a947a57453efb193adce034b528a95dfc9963a95c0921734ff0b7a299fa64736f6c63430008110033",
  "devdoc": {
    "kind": "dev",
    "methods": {},
    "version": 1
  },
  "userdoc": {
    "kind": "user",
    "methods": {},
    "version": 1
  },
  "storageLayout": {
    "storage": [
      {
        "astId": 358,
        "contract": "contracts/UpgradeableContract.sol:proxyStoreData",
        "label": "data",
        "offset": 0,
        "slot": "0",
        "type": "t_struct(personData)355_storage"
      },
      {
        "astId": 360,
        "contract": "contracts/UpgradeableContract.sol:proxyStoreData",
        "label": "contractAddress",
        "offset": 0,
        "slot": "3",
        "type": "t_address"
      }
    ],
    "types": {
      "t_address": {
        "encoding": "inplace",
        "label": "address",
        "numberOfBytes": "20"
      },
      "t_string_storage": {
        "encoding": "bytes",
        "label": "string",
        "numberOfBytes": "32"
      },
      "t_struct(personData)355_storage": {
        "encoding": "inplace",
        "label": "struct proxyStoreData.personData",
        "members": [
          {
            "astId": 350,
            "contract": "contracts/UpgradeableContract.sol:proxyStoreData",
            "label": "addr",
            "offset": 0,
            "slot": "0",
            "type": "t_address"
          },
          {
            "astId": 352,
            "contract": "contracts/UpgradeableContract.sol:proxyStoreData",
            "label": "FirstName",
            "offset": 0,
            "slot": "1",
            "type": "t_string_storage"
          },
          {
            "astId": 354,
            "contract": "contracts/UpgradeableContract.sol:proxyStoreData",
            "label": "LastName",
            "offset": 0,
            "slot": "2",
            "type": "t_string_storage"
          }
        ],
        "numberOfBytes": "96"
      }
    }
  }
}