{
  "address": "0x5FC8d32690cc91D4c39d9d3abcBD16989F875707",
  "abi": [
    {
      "inputs": [],
      "name": "data",
      "outputs": [
        {
          "internalType": "address",
          "name": "addr",
          "type": "address"
        },
        {
          "internalType": "string",
          "name": "FirstName",
          "type": "string"
        },
        {
          "internalType": "string",
          "name": "LastName",
          "type": "string"
        }
      ],
      "stateMutability": "view",
      "type": "function"
    },
    {
      "inputs": [
        {
          "internalType": "address",
          "name": "_addr",
          "type": "address"
        },
        {
          "internalType": "string",
          "name": "_firstName",
          "type": "string"
        },
        {
          "internalType": "string",
          "name": "_lastName",
          "type": "string"
        }
      ],
      "name": "populateData",
      "outputs": [],
      "stateMutability": "nonpayable",
      "type": "function"
    }
  ],
  "transactionHash": "0xc9db517da199a93b9ae6d3f8ba4feab586e0c0753ee8c0e996ce163699c3e1df",
  "args": [],
  "numDeployments": 1,
  "solcInputHash": "c3a9706e966bcff13eebeeff1da2f8c3",
  "bytecode": "0x608060405234801561001057600080fd5b506108a0806100206000396000f3fe608060405234801561001057600080fd5b50600436106100365760003560e01c80635b05f89c1461003b57806373d4a13a14610057575b600080fd5b61005560048036038101906100509190610424565b610077565b005b61005f610124565b60405161006e9392919061053d565b60405180910390f35b60405180606001604052808473ffffffffffffffffffffffffffffffffffffffff168152602001838152602001828152506000808201518160000160006101000a81548173ffffffffffffffffffffffffffffffffffffffff021916908373ffffffffffffffffffffffffffffffffffffffff16021790555060208201518160010190816101059190610798565b50604082015181600201908161011b9190610798565b50905050505050565b60008060000160009054906101000a900473ffffffffffffffffffffffffffffffffffffffff169080600101805461015b906105b1565b80601f0160208091040260200160405190810160405280929190818152602001828054610187906105b1565b80156101d45780601f106101a9576101008083540402835291602001916101d4565b820191906000526020600020905b8154815290600101906020018083116101b757829003601f168201915b5050505050908060020180546101e9906105b1565b80601f0160208091040260200160405190810160405280929190818152602001828054610215906105b1565b80156102625780601f1061023757610100808354040283529160200191610262565b820191906000526020600020905b81548152906001019060200180831161024557829003601f168201915b5050505050905083565b6000604051905090565b600080fd5b600080fd5b600073ffffffffffffffffffffffffffffffffffffffff82169050919050565b60006102ab82610280565b9050919050565b6102bb816102a0565b81146102c657600080fd5b50565b6000813590506102d8816102b2565b92915050565b600080fd5b600080fd5b6000601f19601f8301169050919050565b7f4e487b7100000000000000000000000000000000000000000000000000000000600052604160045260246000fd5b610331826102e8565b810181811067ffffffffffffffff821117156103505761034f6102f9565b5b80604052505050565b600061036361026c565b905061036f8282610328565b919050565b600067ffffffffffffffff82111561038f5761038e6102f9565b5b610398826102e8565b9050602081019050919050565b82818337600083830152505050565b60006103c76103c284610374565b610359565b9050828152602081018484840111156103e3576103e26102e3565b5b6103ee8482856103a5565b509392505050565b600082601f83011261040b5761040a6102de565b5b813561041b8482602086016103b4565b91505092915050565b60008060006060848603121561043d5761043c610276565b5b600061044b868287016102c9565b935050602084013567ffffffffffffffff81111561046c5761046b61027b565b5b610478868287016103f6565b925050604084013567ffffffffffffffff8111156104995761049861027b565b5b6104a5868287016103f6565b9150509250925092565b6104b8816102a0565b82525050565b600081519050919050565b600082825260208201905092915050565b60005b838110156104f85780820151818401526020810190506104dd565b60008484015250505050565b600061050f826104be565b61051981856104c9565b93506105298185602086016104da565b610532816102e8565b840191505092915050565b600060608201905061055260008301866104af565b81810360208301526105648185610504565b905081810360408301526105788184610504565b9050949350505050565b7f4e487b7100000000000000000000000000000000000000000000000000000000600052602260045260246000fd5b600060028204905060018216806105c957607f821691505b6020821081036105dc576105db610582565b5b50919050565b60008190508160005260206000209050919050565b60006020601f8301049050919050565b600082821b905092915050565b6000600883026106447fffffffffffffffffffffffffffffffffffffffffffffffffffffffffffffffff82610607565b61064e8683610607565b95508019841693508086168417925050509392505050565b6000819050919050565b6000819050919050565b600061069561069061068b84610666565b610670565b610666565b9050919050565b6000819050919050565b6106af8361067a565b6106c36106bb8261069c565b848454610614565b825550505050565b600090565b6106d86106cb565b6106e38184846106a6565b505050565b5b81811015610707576106fc6000826106d0565b6001810190506106e9565b5050565b601f82111561074c5761071d816105e2565b610726846105f7565b81016020851015610735578190505b610749610741856105f7565b8301826106e8565b50505b505050565b600082821c905092915050565b600061076f60001984600802610751565b1980831691505092915050565b6000610788838361075e565b9150826002028217905092915050565b6107a1826104be565b67ffffffffffffffff8111156107ba576107b96102f9565b5b6107c482546105b1565b6107cf82828561070b565b600060209050601f83116001811461080257600084156107f0578287015190505b6107fa858261077c565b865550610862565b601f198416610810866105e2565b60005b8281101561083857848901518255600182019150602085019450602081019050610813565b868310156108555784890151610851601f89168261075e565b8355505b6001600288020188555050505b50505050505056fea2646970667358221220094e05795619774e4609f147cea6690bcee5e907702dca8ce6241a6550c3dc3364736f6c63430008110033",
  "devdoc": {
    "kind": "dev",
    "methods": {},
    "version": 1
  },
  "userdoc": {
    "kind": "user",
    "methods": {},
    "version": 1
  },
  "storageLayout": {
    "storage": [
      {
        "astId": 329,
        "contract": "contracts/UpgradeableContract.sol:storeData",
        "label": "data",
        "offset": 0,
        "slot": "0",
        "type": "t_struct(personData)326_storage"
      }
    ],
    "types": {
      "t_address": {
        "encoding": "inplace",
        "label": "address",
        "numberOfBytes": "20"
      },
      "t_string_storage": {
        "encoding": "bytes",
        "label": "string",
        "numberOfBytes": "32"
      },
      "t_struct(personData)326_storage": {
        "encoding": "inplace",
        "label": "struct storeData.personData",
        "members": [
          {
            "astId": 321,
            "contract": "contracts/UpgradeableContract.sol:storeData",
            "label": "addr",
            "offset": 0,
            "slot": "0",
            "type": "t_address"
          },
          {
            "astId": 323,
            "contract": "contracts/UpgradeableContract.sol:storeData",
            "label": "FirstName",
            "offset": 0,
            "slot": "1",
            "type": "t_string_storage"
          },
          {
            "astId": 325,
            "contract": "contracts/UpgradeableContract.sol:storeData",
            "label": "LastName",
            "offset": 0,
            "slot": "2",
            "type": "t_string_storage"
          }
        ],
        "numberOfBytes": "96"
      }
    }
  }
}